{
  "_format": "hh-sol-artifact-1",
  "contractName": "TodoList",
  "sourceName": "contracts/TodoList.sol",
  "abi": [
    {
      "inputs": [
        {
          "internalType": "string",
          "name": "_content",
          "type": "string"
        }
      ],
      "name": "createTask",
      "outputs": [],
      "stateMutability": "nonpayable",
      "type": "function"
    },
    {
      "inputs": [
        {
          "internalType": "uint256",
          "name": "",
          "type": "uint256"
        }
      ],
      "name": "tasks",
      "outputs": [
        {
          "internalType": "string",
          "name": "content",
          "type": "string"
        },
        {
          "internalType": "bool",
          "name": "completed",
          "type": "bool"
        }
      ],
      "stateMutability": "view",
      "type": "function"
    },
    {
      "inputs": [
        {
          "internalType": "uint256",
          "name": "_index",
          "type": "uint256"
        }
      ],
      "name": "toggleCompleted",
      "outputs": [],
      "stateMutability": "nonpayable",
      "type": "function"
    }
  ],
  "bytecode": "0x608060405234801561001057600080fd5b5061092f806100206000396000f3fe608060405234801561001057600080fd5b50600436106100415760003560e01c8063111002aa14610046578063455f5024146100625780638d9776721461007e575b600080fd5b610060600480360381019061005b919061040a565b6100af565b005b61007c60048036038101906100779190610489565b61012d565b005b61009860048036038101906100939190610489565b6101e7565b6040516100a6929190610550565b60405180910390f35b600060405180604001604052808381526020016000151581525090806001815401808255809150506001900390600052602060002090600202016000909190919091506000820151816000019081610107919061078c565b5060208201518160010160006101000a81548160ff021916908315150217905550505050565b6000805490508110610174576040517f08c379a000000000000000000000000000000000000000000000000000000000815260040161016b906108aa565b60405180910390fd5b60008181548110610188576101876108ca565b5b906000526020600020906002020160010160009054906101000a900460ff1615600082815481106101bc576101bb6108ca565b5b906000526020600020906002020160010160006101000a81548160ff02191690831515021790555050565b600081815481106101f757600080fd5b906000526020600020906002020160009150905080600001805461021a906105af565b80601f0160208091040260200160405190810160405280929190818152602001828054610246906105af565b80156102935780601f1061026857610100808354040283529160200191610293565b820191906000526020600020905b81548152906001019060200180831161027657829003601f168201915b5050505050908060010160009054906101000a900460ff16905082565b6000604051905090565b600080fd5b600080fd5b600080fd5b600080fd5b6000601f19601f8301169050919050565b7f4e487b7100000000000000000000000000000000000000000000000000000000600052604160045260246000fd5b610317826102ce565b810181811067ffffffffffffffff82111715610336576103356102df565b5b80604052505050565b60006103496102b0565b9050610355828261030e565b919050565b600067ffffffffffffffff821115610375576103746102df565b5b61037e826102ce565b9050602081019050919050565b82818337600083830152505050565b60006103ad6103a88461035a565b61033f565b9050828152602081018484840111156103c9576103c86102c9565b5b6103d484828561038b565b509392505050565b600082601f8301126103f1576103f06102c4565b5b813561040184826020860161039a565b91505092915050565b6000602082840312156104205761041f6102ba565b5b600082013567ffffffffffffffff81111561043e5761043d6102bf565b5b61044a848285016103dc565b91505092915050565b6000819050919050565b61046681610453565b811461047157600080fd5b50565b6000813590506104838161045d565b92915050565b60006020828403121561049f5761049e6102ba565b5b60006104ad84828501610474565b91505092915050565b600081519050919050565b600082825260208201905092915050565b60005b838110156104f05780820151818401526020810190506104d5565b60008484015250505050565b6000610507826104b6565b61051181856104c1565b93506105218185602086016104d2565b61052a816102ce565b840191505092915050565b60008115159050919050565b61054a81610535565b82525050565b6000604082019050818103600083015261056a81856104fc565b90506105796020830184610541565b9392505050565b7f4e487b7100000000000000000000000000000000000000000000000000000000600052602260045260246000fd5b600060028204905060018216806105c757607f821691505b6020821081036105da576105d9610580565b5b50919050565b60008190508160005260206000209050919050565b60006020601f8301049050919050565b600082821b905092915050565b6000600883026106427fffffffffffffffffffffffffffffffffffffffffffffffffffffffffffffffff82610605565b61064c8683610605565b95508019841693508086168417925050509392505050565b6000819050919050565b600061068961068461067f84610453565b610664565b610453565b9050919050565b6000819050919050565b6106a38361066e565b6106b76106af82610690565b848454610612565b825550505050565b600090565b6106cc6106bf565b6106d781848461069a565b505050565b5b818110156106fb576106f06000826106c4565b6001810190506106dd565b5050565b601f82111561074057610711816105e0565b61071a846105f5565b81016020851015610729578190505b61073d610735856105f5565b8301826106dc565b50505b505050565b600082821c905092915050565b600061076360001984600802610745565b1980831691505092915050565b600061077c8383610752565b9150826002028217905092915050565b610795826104b6565b67ffffffffffffffff8111156107ae576107ad6102df565b5b6107b882546105af565b6107c38282856106ff565b600060209050601f8311600181146107f657600084156107e4578287015190505b6107ee8582610770565b865550610856565b601f198416610804866105e0565b60005b8281101561082c57848901518255600182019150602085019450602081019050610807565b868310156108495784890151610845601f891682610752565b8355505b6001600288020188555050505b505050505050565b7f496e76616c696420696e64657800000000000000000000000000000000000000600082015250565b6000610894600d836104c1565b915061089f8261085e565b602082019050919050565b600060208201905081810360008301526108c381610887565b9050919050565b7f4e487b7100000000000000000000000000000000000000000000000000000000600052603260045260246000fdfea2646970667358221220aa9574ec6eecfa6da14cd52ded4a7c260cd6030bce59646ba9d6dd924cdd569264736f6c63430008180033",
  "linkReferences": {},
  "deployedLinkReferences": {}
}